:020000040800F2
:1000000068E20220A10200085BCD00088DAC000868
:1000100059CD000885210008F111010800000000F9
:10002000000000000000000000000000DD010008EA
:1000300091220008000000003902000859E1000880
:10004000BB020008BB020008BB020008BB0200089C
:10005000BB020008BB020008BB020008BB0200088C
:10006000BB020008BB020008BB020008BB0200087C
:10007000BB020008BB020008BB020008BB0200086C
:10008000BB020008BB020008BB020008BB0200085C
:10009000BB020008BB020008BB020008492500089B
:1000A000BB020008BB020008BB020008BB0200083C
:1000B000BB020008BB020008BB020008BB0200082C
:1000C000BB020008BB020008BB020008BB0200081C
:1000D000BB020008BB020008BB020008BB0200080C
:1000E00041250008BB020008BB020008BB02000853
:1000F000BB020008BB020008BB020008BB020008EC
:10010000BB02000879D30008BB020008BB0200084C
:10011000BB020008BB020008BB020008BB020008CB
:10012000BB020008BB020008BB02000861220008F5
:100130006D22000811240008BB020008BB02000861
:10014000BB020008BB020008BB0200085DCD00082E
:10015000BB0200087922000885220008BB020008C3
:10016000BB020008BB020008BB020008BB0200087B
:10017000BB020008BB020008BB0200080000000030
:10018000BB020008BB020008BB020008BB0200085B
:10019000BB020008BB020008BB020008BB0200084B
:1001A000B1C40008BB02000845220008BB020008D9
:1001B000BB020008BB020008BB020008BB0200082B
:1001C000BB020008BB020008DFF80CD000F038FBCF
:1001D00000480047AD37020868E202202D4B19683D
:1001E0000868B0E8F04F80F30988BFF36F8F4FF0D5
:1001F000000080F311887047000000000848006884
:10020000006880F308884FF0000080F3148862B61D
:1002100061B6BFF34F8FBFF36F8F00DF00BF00BF2A
:1002200008ED00E0DFF80C00016841F470010160A6
:10023000704700BF88ED00E0EFF30980BFF36F8FD8
:10024000144B1A681EF0100F08BF20ED108A20E929
:10025000F04F106009B44FF0500072B680F311886F
:10026000BFF34F8FBFF36F8F62B62EF06FF94FF071
:10027000000080F3118809BC19680868B0E8F04FE5
:100280001EF0100F08BFB0EC108A80F30988BFF38E
:100290006F8F7047A4000120EFF3058070470000C6
:1002A0000648804706480047FEE7FEE7FEE7FEE710
:1002B000FEE7FEE7FEE7FEE7FEE7FEE769E100088E
:1002C000C90100082DE9F05F0546002092469B46D3
:1002D00088460646814640241BE02846414647465C
:1002E000224600F0E4F853465A46C01A914110D312
:1002F00011461846224600F0CBF82D1A67EB01088C
:100300004F4622460120002100F0C2F817EB0009F9
:100310004E41201EA4F10104DFDC484631462A4646
:100320004346BDE8F09F00000649074A086850436D
:1003300043F23902104408604008704701490860E0
:1003400070470000800701206D4EC64110B5441A69
:100350000346944209D28418114403E011F8013D88
:1003600004F8013D521EF9D210BD40EA0104A40771
:1003700003D009E010C9121F10C3042AFAD203E007
:1003800011F8014B03F8014B521EF9D210BDD2B245
:1003900001E000F8012B491EFBD270470022F6E76E
:1003A00010B513460A4604461946FFF7F0FF2046EB
:1003B00010BD421E12F8013F002BFBD111F8013B8A
:1003C00002F8013B002BF9D17047421C10F8011BC9
:1003D0000029FBD1801A704710B5002200E0521CA2
:1003E000835C8C5CA34201D1002BF8D1D8B2E1B27E
:1003F000401A10BD30B504460020034600E05B1CE7
:10040000934203D2E05CCD5C401BF8D030BD034684
:1004100011F8012B00F8012B002AF9D1184670477A
:1004200030B505460020034600E05B1C934205D230
:10043000EC5CC85C201A01D1002CF6D130BD00F074
:10044000004230F000400AD0C10D01F56071C0F3E8
:10045000160042EA0151C2084007114370470020CC
:100460000146704730B50B4601460020202201248A
:1004700009E021FA02F59D4205D303FA02F5491B72
:1004800004FA02F52844151EA2F10102F1DC30BD88
:10049000202A04DB203A00FA02F100207047914044
:1004A000C2F1200320FA03F3194390407047202A39
:1004B00004DB203A21FA02F00021704721FA02F30E
:1004C000D040C2F1200291400843194670472DE9FF
:1004D000FE4F804681EA0300C00F0C46009021F0D9
:1004E000004123F00045B8EB0200A94105D2404687
:1004F000214690461C460B46024623F0004010431E
:1005000047D0270DC7F30A00C3F30A510290401ADF
:10051000019040286BDAC3F3130040F4801B00986D
:10052000924620B10023D2EB030A63EB0B0B019838
:100530005946C0F140025046FFF7AAFF06460D4655
:1005400050465946019A00F08DF910EB08006141C0
:10055000002487EA115284EAE7731A4340D0009AD4
:1005600062B3019A012A4FEA075215DC001B61EBC6
:1005700002014FF0004202EA0752CDE90042001C9E
:1005800041F5801132462B4600F08DF903B0BDE8ED
:10059000F08F40462146F9E7001B61EB0201001C89
:1005A00041F5801300185B412018A2F5001747EBB6
:1005B000030140EAD570B6196D4111E06D084FEAAC
:1005C000360645EAC0754FEA0752001B61EB02018F
:1005D000001C41F5801149084FEA300000195141D3
:1005E00032462B4603B0BDE8F04F00F04DB90098FD
:1005F000012240000023D0EB020263EBE07300987D
:1006000021464FEAE074B8EB000061EB0401E9E732
:1006100083F000435BE781F0004158E72DE9FE4F8E
:1006200081EA030404F0004421F0004100944FF0FB
:10063000000B23F0004350EA01045ED052EA0304A9
:100640005BD0C3F30A54C1F30A552C44A4F2F3342B
:100650000194A0FB0254C1F3130141F48011C3F3D0
:10066000130343F4801301FB024400FB034E840A8E
:10067000970A44EA815447EA8357A4FB0768029526
:100680008D0A05FB07854FEA932C04FB0C542705C4
:10069000029D4FEA065847EA1637B5EB08056EEBA0
:1006A000070C870E920E47EA811742EA8312A7FBD6
:1006B0000201B6EB0B0164EB00042B0D43EA0C3393
:1006C0005E1844EB1C50DA465146E7FB0201C5F3C5
:1006D00013044FEA0B3343EA14534FEA0432019CEC
:1006E00043EA0603A4F10C040294009CCDE900B493
:1006F00000F0D9F803B0BDE8F08F00200146F9E71B
:100700002DE9F04D81EA030404F0004B21F000458F
:1007100014464FF0000A23F0004150EA050220D0B1
:1007200054EA01021DD0C5F30A570246C5F313036C
:10073000C1F31300C1F30A5640F4801543F480134B
:10074000A7EB0608101BD64608F2FD3873EB050030
:1007500002D308F1010801E092185B41B8F1000FE3
:1007600003DA00200146BDE8F08D00204FF480112F
:10077000064684460EE0171B73EB050705D3121BD4
:1007800063EB050306434CEA010C49084FEA3000CD
:1007900092185B4150EA0107EDD152EA030012D0F2
:1007A00082EA040083EA0501084305D0101BAB412F
:1007B00006D20122002306E000224FF0004302E0AF
:1007C0006FF0010253101AEB06004CEB085110EBCE
:1007D0000A0041EB0B01BDE8F04D00F055B8C1F344
:1007E0000A52C1F3130140F2FF3341F480119A42DF
:1007F00002DA00200146704740F233439A42A2F2E7
:10080000334202DC5242FFF752BEFFF741BE000006
:1008100030B5041E71F1000404DB4FF00044404287
:1008200064EB0101141E73F1000405DB1C464FF05C
:100830000043524263EB0403994208BF904230BD2B
:10084000064C074D06E0E06840F0010394E807001D
:1008500098471034AC42F6D3FFF7BAFC30D7030800
:1008600060D70308202A06DBCB17203A41FA02F0B2
:1008700043EAE07306E041FA02F3D040C2F12002FD
:10088000914008431946704710B5141E73F10004D7
:1008900008DA401C41F1000192185B411A4301D172
:1008A00020F0010010BD2DE9F04D92469B4611B19C
:1008B000B1FA81F202E0B0FA80F220329046FFF7FE
:1008C000E7FD04460F4640EA0A0041EA0B015346A1
:1008D0005A46084313D0114653EA010019D0C8F113
:1008E00040025046FFF7E3FD05460E465046594686
:1008F0004246FFF7CDFD084305D0012004E0204625
:100900003946BDE8F08D0020054346EAE0762C43E9
:1009100037430A986305E40AA0EB08000022FD0AA9
:1009200044EA47540A3002D500200146E9E70105B0
:1009300010196941DDE9084500196941BDE8F04D2C
:10094000A2E770B58C1810F8015B15F0070301D110
:1009500010F8013B2A1106D110F8012B03E010F822
:10096000016B01F8016B5B1EF9D12B0705D4002345
:10097000521E0DD401F8013BFAE710F8013BCB1AE7
:10098000921C03E013F8015B01F8015B521EF9D5DC
:10099000A142D8D3002070BD704706F0AFB8000068
:1009A00001480AF015BB00008807012030B585B06A
:1009B0000A464FF47A75104C0021ADF80C100DF179
:1009C0000C0C0146CDF800C00220CDE9010503461C
:1009D000204607F0ABFC28B1204607F02EFC20464D
:1009E0000AF0F6FABDF80C0005B00102000AC1F3E6
:1009F000072140EA012030BD8807012037B584B0C7
:100A00000A464FF47A75104C0DF1180CBDF8181009
:100A1000CDF800C00B02090A1B0A41EA0321ADF818
:100A2000181002230146CDE90135204607F054FD98
:100A3000002804BF07B030BD204607F0FEFB20466B
:100A40000AF0C6FA07B030BD8807012070B54F48DC
:100A5000002586B000780F2847D2DFE800F08C8CA4
:100A60008C088C8C5E5E8C8C56626D788F00484C46
:100A700004F1280660687168884205D3022000F0FE
:100A8000B5FB4249062008702078012802D00228D0
:100A90002CD00EE03F4901AB3F484FF480521FF08D
:100AA000F5F900282BD161680020207001980844D6
:100AB0006060F16963683548B3FBF1F182688A428E
:100AC00059D081603548A0FB0120354A4309A3EB8A
:100AD000031001EB8000009032A102A81AF004FC80
:100AE000374802A900680DF003FC44E0354901AB2A
:100AF00029484FF480521FF0C9F90028D3D00220B2
:100B000000F074FB06B0012070BD022000F06EFB07
:100B10001E490020012508702DE0022000F066FB30
:100B200029E0274828A100680DF0E2FB00F002FB55
:100B30001649012008701EE0214825A100680DF02B
:100B4000D7FB00F02BFB11490320087013E00F4C7A
:100B500060685A289CBF60680A3000D8606062688C
:100B60001DA102A81AF0C0FB154802A900680DF0EB
:100B7000BFFB0320207006B0284670BD034C6068A0
:100B80000A2824BF60680A38E9D3E7E7B4020120E5
:100B9000A4D80220A4B80220F8D802208988888826
:100BA000ACD80220506C6179696E67203A202573B9
:100BB000205B253032643A253032645D000000004D
:100BC0006C020120A4C802205061757365640000A6
:100BD000526573756D656400566F6C756D65203A6E
:100BE00020256C7520000000F0B591B005467548D1
:100BF0001EF028FD744F0122294607F12C001EF03B
:100C000063FF724E60B92C2239460FAB07F12C00FE
:100C10001FF03CF9002870D007F12C001EF012FDE7
:100C20002846FFF7D2FB2846FFF7CFFB012898BFE5
:100C3000002705D92846FFF7C8FB012121EA000754
:100C40002846FFF7C2FB441E2846FFF7BEFBC01B29
:100C5000401EA0420DDA285D5C2818BF2F2820D046
:100C6000A4F101042846FFF7B0FBC01B401EA042C0
:100C7000F1DB2846FFF7A9FBC01B441E002C10DD4A
:100C8000285D5C2818BF2F280BD005EB040010F856
:100C9000010C5C2818BF2F287DD0A4F10204002C81
:100CA000EEDC2819411C4A48FFF7B1FB464882692F
:100CB0007068C1B2032000F033F9002804BF05209A
:100CC00000F080FA0020434C01222946207004F1F4
:100CD00054001EF0F9FE002104F154001EF0E2FC65
:100CE0000EAB4FF40052A4F5005104F154001FF074
:100CF000CDF8002863D154E0FFE737A12A4601A8C8
:100D00001AF0F2FA394C01A920680BF0C7FC2068F0
:100D100037A10BF0C3FCBA6936A101A81AF0E4FAB6
:100D2000206801A90BF0BAFC206831A10BF0B6FCD9
:100D3000FA8A35A101A81AF0D7FA206801A90BF0A8
:100D4000ADFC20682AA10BF0A9FC7968F869344A47
:100D5000B1FBF0F0A2FB00325309A3EB031200EB4E
:100D6000820000908A0A2FA101A81AF0BDFA20681B
:100D700001A90BF093FC20681DA10BF08FFC726899
:100D800030A101A81AF0B0FA206801A90BF086FC86
:100D9000206817A100E002E00BF080FC40E7641E31
:100DA0007FE7032030700E9848B12A484FF4005175
:100DB00000F0D4F90E98606011B00020F0BD11B0C1
:100DC0000120F0BDF8D80220CCD80220B4020120C6
:100DD000ACD80220A4D80220506C6179696E6720DB
:100DE00066696C65203A20257300000064020120CA
:100DF0000A00000053616D706C652072617465209B
:100E00003A20256420487A004368616E6E656C73F1
:100E1000206E756D626572203A2025640000000026
:100E20008988888846696C652053697A65203A20EC
:100E30002564204B42205B253032643A25303264F1
:100E40005D000000566F6C756D65203A20256C754D
:100E500000000000A4B80220074840684BF680322A
:100E6000C1B2042000F05CF8C82101202CF0DAFEA9
:100E7000FFF7ECFDF8E70000B4020120704710B561
:100E8000A2B00C46684608F0B1F8A4F52C5111390F
:100E90004FF480104FF480011FBFA4F5AC42B2F1B3
:100EA0002202A4F52C42B2F144020FD04FF4AC72EE
:100EB000109107234FF0010CCDF824C0CDE90002BA
:100EC0006846039308F0F6F922B010BD40F2AD1267
:100ED000109102234FF0130CCDF824C0CDE900028D
:100EE0006846039308F0E6F922B010BD7047000091
:100EF00008480078032818BF704708B50120064944
:100F00000870002000906946044800682DF0D2F96E
:100F100008BD0000B4020120A4D802205402012020
:100F20002DE9F047304C81462E4D01271646884664
:100F30002560286820F480302860204608F0B5FF3E
:100F4000002231462046FFF79AFF2046256008F030
:100F5000E7FF18B90021204600F04CF8256000207A
:100F60002B680121802223F480332B6060604B03C7
:100F700060614FF4802AC4E90C02C4E90E012361C8
:100F80000A04A0600423C4E90616C4E91220C4E9D7
:100F900014A020254FF0400C0F212166C4E9160350
:100FA0001148C4E910C508F0BFFF2068016841F48A
:100FB000803101600D4C3420A1688847A0F50941BB
:100FC00094390CD1E16A3420884709480027334618
:100FD0004246494644603420D4F800C0E0473846D1
:100FE000BDE8F087045C01402008012038000120A2
:100FF000140001202DE9F04F0746484887B00168EA
:1010000041F4000101600068454C00F400000590C7
:10101000206840F480702060206800F480700590A3
:10102000206840F480702060206800F48070059093
:10103000206840F48070206020684FF0020803258B
:10104000DFF8E0B000F48070059080204FF00A09CE
:1010500000266946CDE90008CDE902655846CDF87D
:10106000109006F0CBF920206946CDE90008CDE9C3
:1010700002655846CDF8109006F0C0F94FF0400ACE
:101080006946CDE90265CDE900A85846CDF8109033
:1010900006F0B4F910206946CDE90008CDE90265F3
:1010A0005846CDF8109006F0A9F9206840F4800069
:1010B0002060206800F4800005901B483968814258
:1010C00020D11A484FF4006C63054FF004080C154A
:1010D00049144360C0E9044CC0E902A6C0E90A56BD
:1010E000DFF84CC04A1106630B0140F818CB80E8CA
:1010F0000E011838F86687630C4805F0BDFA0B48F6
:1011000005F0F4FB00220E213C2007F0DDFE3C2020
:1011100007F0CDFE07B0BDE8F08F00004438024074
:101120003038024000200240045C014028090120C0
:1011300070640240074810B5406801693420884750
:1011400000281CBF012010BD034808F037FE002016
:1011500010BD0000140001202008012070B50546D4
:101160000C488AB20C4629464068C3683420984728
:1011700000281CBF012070BDB4F5003F34BF6008DB
:101180004FF6FF7082B20448294608F0C7FF0020DE
:1011900070BD00001400012020080120074810B590
:1011A000406841693420884700281CBF012010BDD9
:1011B000034808F016FE002010BD000014000120B6
:1011C0002008012010B5084C21680A6822F48032FA
:1011D0000A602066204608F0A7FE2068016841F4F6
:1011E0008031016010BD00002008012010B50446C8
:1011F000094808F012FE09482146406882693420F7
:10120000904700281CBF012010BD012C04BF012005
:1012100005F074FC002010BD2008012014000120FE
:1012200008480078032818BF704708B5022006490F
:101230000870002000906946044800682DF03AF8D4
:1012400008BD0000B4020120A4D8022054020120ED
:101250002DE9FF4F86B008994A1C0C7800210291B5
:1012600034B100BF12F801CB491CBCF1000FF9D119
:101270006D4E012B6D4FA7F1E808326802EB420C6E
:1012800002EB820507EB8C0C05EBC20208EB820532
:10129000DCF808202D6E9288B5FBF2FC04D0022BFE
:1012A00018BF009009D00FE0ACEB010101FB02F187
:1012B00000EB510080B2009006E0ACEB010101FBB5
:1012C00002F1081A80B20090401E47F6FF71884272
:1012D00024BF01200090029800FB125080B290427F
:1012E0002CBF01200020002C14BF01210021084246
:1012F00004BF0AB0BDE8F08FDDE90701DDF800802A
:101300004FF0000A097801903068A1F1200300EB4A
:10131000400007EB800080688588C1880268E81D6E
:10132000002904914FEAD00C1CFB03F301FB0322BC
:10133000059220F00702A2EB050101F0FF0B84BF2C
:10134000C008039042D9059900FB0A1003990129AE
:1013500008BF90F800900DD0022904BF008890FAD1
:1013600090F907D0017842788078090441EA022197
:1013700041EA00094FF00004002D1CD9291B5944F3
:101380000120491E8840316810EA090F08EB04006B
:1013900080B201EB410105D057F82120019900F0FE
:1013A0005FF805E007EB81014A68019900F058F801
:1013B000641CAC42E2D301980AF1010A411C049872
:1013C000824588B2019038BF0398BCD30298411C73
:1013D000306889B20291089900EB4002491C0891DB
:1013E00000EB800107EB820201EBC000104992681C
:1013F00001EB8000016E9088029A02FB10120099A6
:1014000092B2014489B20091904294BF012100211F
:1014100008980078002818BF012001427FF46CAFC3
:101420000AB0BDE8F08F00001C000120B40B0120C1
:10143000CC0A01200A460849084B096801EB410122
:1014400003EB810103238968C98801FB00F081B2A5
:101450000020FFF7FDBE00001C000120B40B01209E
:101460000D4B4DF8044DD3F800C00C4B0CEB8C0425
:1014700004EBCC0C03EB8C039C6CD3E9173C022CE3
:1014800001FB0C0006BF03EB4000028043F8202064
:101490005DF8044B704700001C000120CC0A0120BD
:1014A0000349044A096801EB410142F821007047F1
:1014B0001C000120B40B0120002818BF704730B574
:1014C000104987B00E4D086840F4807008600868C5
:1014D00001210D4C032200F4807005902068CDE9B5
:1014E0000001CDE902126946284605F087FF2088F1
:1014F000002281B2284606F0B9F807B030BD0000DE
:101500000020024030380240AC010308002818BF18
:10151000704703480349098889B206F0A0B8000063
:1015200000200240AC0103081C48022270B500F103
:1015300034014FF0070C184D042305600024C1E965
:10154000002CC1E9023C0A614FF0100C4A61D6013F
:101550008A619102C0F810C0402544604A00C0E989
:101560000243C0E90741C0E909240021C0E905564A
:1015700000F062F80A49A1F1340008F031FE094D8B
:1015800000281ABF012028702C7040F2036000F080
:101590000BF8287870BD0000400100A0900E0120DB
:1015A000C40E0120280001202DE9F843214C10260B
:1015B000002780460125009721464FF6FF72C4E9B7
:1015C0000056C4E90257A1F1500008F03DFE012089
:1015D00005F094FA02202146C4E90006C4E9025746
:1015E000A1F150004FF6FF7208F02EFE03214FF6D6
:1015F000FF72C4E9001608202146C4E90207A1F1E0
:10160000500008F021FE4FF40870009004214FF6BE
:10161000FF72C4E90250C4E900162146A1F150004E
:1016200008F012FEA4F150004146BDE8F84308F06E
:10163000F9BD0000E00E0120F0B504464E4887B029
:10164000016841F00101016000684C4900F00100AF
:101650000590086840F480000860086800F4800085
:101660000590086840F004000860086800F0040075
:101670000590086840F008000860086800F008005D
:101680000590086840F010000860086800F010003D
:101690000590086840F020000860086800F020000D
:1016A0000590086840F040000860086800F04000BD
:1016B0000590086840F080000860086801210C224D
:1016C00000F0800005900220CDE90101082300937D
:1016D000CDE903022A48694605F090FE4CF20370FA
:1016E00000902848694605F089FE4FF68370009007
:1016F0002548694605F082FE4FF63F0000902348DA
:10170000694605F07BFE48F2331000902048694698
:1017100005F074FE282000901E48694605F06EFE14
:1017200080271D490022BD004FF4003CEB004A60B9
:101730006E00C1E90275C1E904639800C1F820C0D8
:101740000325164BC1E906020846C1E90925CA620C
:101750000B600A6321638C6304F08EFF0E4805F072
:10176000C5F800220F21382007F0AEFB382007F023
:101770009EFB07B0F0BD0000383802403038024010
:1017800000080240000C0240001002400014024019
:1017900000180240001C0240D00D012010640240DD
:1017A000704700000C484DF804ED87B0016841F027
:1017B0000401016000680021012200F0040005908E
:1017C00003234FF400508DE80F000448694605F0EC
:1017D00015FE07B05DF804FB3038024000080240F7
:1017E0000146014808F0DCBE4C0D0120044810B54C
:1017F00008F0E8FE042814BF0120002010BD0000FE
:101800004C0D012038B51A49002418482546C1E975
:1018100000048C60CC600C614C6115488C612146E1
:10182000FFF7C0FF01208DF800004103114805F0CB
:1018300011FF012808BF8DF800409DF80000012825
:101840001CBF022038BD0021094800F027F80848D5
:1018500008F0F4FF08B1012506E005484FF40061E7
:1018600008F00DFD0028F6D1284638BD002C0140B7
:101870004C0D01200008024008B501208DF8000041
:101880004103054805F0E6FE012804BF00208DF85D
:1018900000009DF8000008BD000802402DE9F04F4F
:1018A00004464A4887B0016841F40061016000685D
:1018B00000F4006005904648016841F48001016031
:1018C000016801F480010591016841F004010160A3
:1018D000016801F004010591016841F0080101600F
:1018E00000680C21022200F00800059001230293F9
:1018F0000325CDE903514FF4F8506946CDE90002C4
:10190000344805F07BFD344804266946009605F00E
:1019100075FD00220E21312007F0D6FA312007F0A4
:10192000C6FA2E480027B1024FF0200A4FF0006897
:101930004FF48069C0E90187C7604FF4001BC0E91C
:1019400004918900C0E9061A2904C0E90816710546
:10195000C0F830B0C0E90A5121490160E0638463F6
:1019600004F08AFE1D4804F0C1FF1E4840212A04ED
:101970004FF4804CC0E902178901CB02C0E9049101
:101980001949C0F830B0C0E90018C0E90826C0E91C
:101990000A53C0E906CA2064846304F06DFE11484E
:1019A00004F0A4FF00220F213B2007F08DFA3B201A
:1019B00007F07DFA00220F21452007F085FA452027
:1019C00007F075FA07B0BDE8F08F00004438024018
:1019D0003038024000080240000C0240CC0B0120CD
:1019E000586402402C0C0120A064024013460A46B1
:1019F0000146044810B509F025F8002818BF012059
:101A000010BD00004C0D0120034801214FF0FF32B2
:101A1000406824F0D7B800004401012013460A466C
:101A20000146044810B509F099F8002818BF0120B4
:101A300010BD00004C0D0120034802214FF0FF3281
:101A4000406824F0BFB80000440101202DE9F04FA8
:101A500091B06A4D06460020019004460290039022
:101A6000A8680169687888470028307018BF00248A
:101A700000F0BE807CD9DFF888B10DF110090DF1BE
:101A80001C0A0DA90AA801EB440200EB4401A86856
:101A900090460F464369687898472878012806D110
:101AA000398829F81410B8F800102AF8141010F02A
:101AB000020F04D03988C1F5805129F8141010F0B4
:101AC000040F05D0B8F80010C1F580512AF81410A1
:101AD00010F0080F06D038882AF81400B8F8000073
:101AE00029F814005BF8241039F8140088428CBFE0
:101AF000411A091A434A0AEB44071FFA81FC52F8BB
:101B00002430398899428CBFCB1A5B1A9BB263444C
:101B1000052B84BF4BF8240042F8241095F801C02F
:101B2000BCF1700F31D05BF8243006EB44006988BB
:101B300003FB01F1090B418052F82410AA8801FB34
:101B400002F1090B818103A8214602AB009001AA92
:101B500060461FF00DFA301901998175029980F8DD
:101B600020100399002908BF012114D0012900E0A9
:101B700017E008BF02210ED0022908BF03210AD0B6
:101B8000032908BF002106D006E006EB4401488087
:101B900038888881D7E7C176641C3078A0423FF648
:101BA00070AF0027009768783C4669461FF0D0F96F
:101BB0000098182808BF03201ED00CDC002808BF9E
:101BC000B76215D0102808BF012015D0142808BF0F
:101BD000022011D00BE01C2808BF04200CD04028A4
:101BE00008BF052008D0492808BF062004D00124DA
:101BF00011B02046BDE8F08FB062F9E72C0001205B
:101C0000F00E0120040F012070B50C4C00260C4D85
:101C100060807020A18029688847696870208847A3
:101C2000512818BF032601D0304670BDA560702032
:101C3000607008212170E9688847F5E72C000120D1
:101C40007400012038B545680446014628460FF067
:101C50003CFB00282BD02068304A11280DD006DC30
:101C60000B2825D00E2833D00F2852D112E0282877
:101C700049D0B0F5107F4CD108E09268002A16D008
:101C80002146284601B0BDE8304010475268214641
:101C90002846F7E7284601F03FFD0090406E0468B3
:101CA000684601F08FFD002C01D02846A04738BDC2
:101CB000284601F031FD0090683001F089FC009861
:101CC00003216C3001F092FC684601F07BFD20E0BE
:101CD000E068D0E900100D2902D0202913D105E0D9
:101CE000002810DD284617F024F906E0002804DD5E
:101CF0002846BDE8384017F01CB92846BDE83840F2
:101D0000022117F02CB9E06818B90021284600F02C
:101D100083F92046BDE838400FF09CBD180401202F
:101D2000F0B50027B0F9085085B086690446408AAE
:101D3000CDE9001702AF87E86100B4F90C10B4F9DF
:101D40000A00B4F910601944B4F90E501044334637
:101D50002A4600F007F86168054600F065F905B00D
:101D60002846F0BD2DE9F04F85B01F4690468946C4
:101D70008246DDE911B4DDE90E5602F03BFB4C343E
:101D80001548CDE900563B464246CDE90204494696
:101D900050460FF0A5FC040018D001F0BDFC102245
:101DA000594604900FF0C6FB049830220B4934309A
:101DB000FEF7CCFA094D04990C3D2868486604A842
:101DC00001F000FD286841682046884703F092FB37
:101DD00005B02046BDE8F08F451C00082404012012
:101DE000F0B504468B4A89B0D4E90101002852F8C5
:101DF00021507DD0052804D006287AD0122879D128
:101E0000AEE0E869F0B395E80E008DE80F0004F14C
:101E100010010FC903F07AFF5FF0000655F82600A5
:101E200002F0F1FFE869A269D4E90413121A01442F
:101E3000981902F029F8D4E90623E8692169121AF1
:101E40000144981B02F020F8E869D4E90431E26902
:101E5000121A0144981902F0A9F8E869E269D4E974
:101E60000513121A0144981B02F0A0F8761C022EEA
:101E7000D4DBA86802F0C7FFE96920696669E369F5
:101E8000421800E012E05B1A801C521E314402F03E
:101E9000DDF8D4E90623E9696669501A5B1A401C2B
:101EA000921E314402F0D2F8EE6912E05FF00006B3
:101EB00055F8260002F0A7FF04F110000FC89B1B85
:101EC000921B3144304402F031F8761C022EEFDBD5
:101ED0000226D5E90301CDE9000104F110000FC885
:101EE0000B44921B5B10891C304401F091FF02E00F
:101EF00089E012E08AE0D5E90501CDE90001D4E9E5
:101F00000405D4E906230121921BEC189B1E01EB6A
:101F10006401304401F07CFF78E0206801F0FCFBB4
:101F20000490206811F06EF840B1A06808B100205C
:101F300008E00498006F28B1012003E00498406F86
:101F400000B10220049901EB8000C56E04A801F0E5
:101F500039FC002321681A46284601F00FFE55E09F
:101F6000206801F0D9FB0490866EEEB3A168B0F949
:101F70005C40D1B3032942D05FF0000100EB810146
:101F8000406D0F6C02F056FF384602F03CFF05A88A
:101F900002F01EF9BDF81410A88B0144ADF814101E
:101FA000BDF81810081AADF81800BDF81600801C0E
:101FB000ADF81600BDF81A00801EADF81A0004989E
:101FC000B0F96020B0F95E1005A802F005FE04A883
:101FD00001F0F8FB022002F0BFFF304601F09CFB4D
:101FE00005A92246079001E00BE006E001F018FE8B
:101FF0000DF11C0001F0E6FB08E00121BEE7022123
:10200000BCE704A8F6E7206810F086FC09B00020C1
:10201000F0BD0000D4CC030800294FF4807101D03A
:102020000FF0F0B90FF038B92DE9FF4105000E4669
:102030004FF0010422D002F0DDF9284601F06CFBDC
:102040000190876E01A8009701F0BCFB31466846FD
:1020500004F078F980B100984FF00004B84208D03D
:10206000284601F059FB00990190816601A801F012
:10207000A9FB284610F072F903F03CFA04B02046A0
:10208000BDE8F08182B0FFF74FFA2B494FF0404096
:1020900008614FF488714FF4D270FFF7B5FD2748FF
:1020A000016841F480510160016801F480510091A0
:1020B000016841F480210160006800F480200090F4
:1020C0000020FFF7F9F91E4800241EA1234640F224
:1020D000EE22CDE900401E482DF09CFC1D49002257
:1020E0001D480CF0A5FC1D491B480EF0FDF91A48CF
:1020F0000EF0E2FA1A4801251C49057019480470CF
:10210000194804701A4800F037FA1A4800234FF4AF
:10211000967219A1CDE9005019482DF07BFCFFF70C
:10212000ABFB64202BF0D6FF0020FFF7EFF9FEF7A2
:102130008DFC3220F6E700004802012030380240D2
:102140004C0201204D61696E205461736B000000E8
:10215000FDCA0008CD060108D49101202802012003
:10216000980201209A020120990201209C0201207C
:10217000CC200308500201205344205461736B00AB
:1021800031DE0008FEE700007CB5224C05462168E0
:10219000488CB1F84C2010444884888CB1F8502009
:1021A00010448884284601F0EDFF2168498CADF881
:1021B00000104618284603F04DFF3044401EADF88D
:1021C000040002F03DF82168898CADF80210084443
:1021D000401EADF80600684610F0A0FD04E0284659
:1021E00000F070FF10F04EFD0028F8D10A2D04D049
:1021F0002168BDF80400401C48842068418CB0F878
:102200004C20891A4184818CB0F85020891A81842D
:102210007CBD00004C0301204DF804ED83B00FF0AD
:102220005DFC0021054A0346054800910191032108
:1022300001F088FB03B05DF804FB000081B30108E6
:1022400078B00308044802211023002281608360D3
:10225000024802707047000000B002407402012082
:102260000148C06B04F054BA4C0D01200148C06E07
:1022700004F04EBA200801200148006C04F048BA6E
:102280004C0D01200148006F04F042BAA40801205F
:102290007047000030B5ADF5057D054600244FF4CC
:1022A000007102A8829483948494FEF777F81D4805
:1022B00001684A1C02601CA182A819F015F882A9C5
:1022C00002A8FEF776F819A102A8FEF772F824A179
:1022D00002A8FEF76EF802A8FEF777F802A90844F4
:1022E00023F09CFD2CA102A8FEF763F838A102A8F8
:1022F000FEF75FF84548FEF768F8444901230246B7
:102300002846009423F098F802A8FEF75EF801230F
:10231000024602A92846009423F08EF80DF5057DAB
:1023200030BD0000B0020120256400003C707265E1
:102330003E3C62723E4E616D6520202020202020B0
:10234000202020537461746520205072696F726977
:1023500074792020537461636B2020204E756D00CA
:102360003C62723E2D2D2D2D2D2D2D2D2D2D2D2D03
:102370002D2D2D2D2D2D2D2D2D2D2D2D2D2D2D2D8D
:102380002D2D2D2D2D2D2D2D2D2D2D2D2D2D2D2D7D
:102390002D3C62723E0000003C62723E3C62723E26
:1023A0002D2D2D2D2D2D2D2D2D2D2D2D2D2D2D2D5D
:1023B0002D2D2D2D2D2D2D2D2D2D2D2D2D2D2D2D4D
:1023C0002D2D2D2D2D2D2D2D2D2D2D2D2D000000C4
:1023D0003C62723E42203A20426C6F636B65642C13
:1023E0002052203A2052656164792C2044203A2002
:1023F00044656C657465642C2053203A20537573D2
:1024000070656E6465643C62723E0000E0B0030873
:10241000014804F050BC000098B502202DE9F041BD
:10242000044621B14FF40061C800C4E90201E0692B
:10243000002500280CBF4FF4806028463C4B402606
:102440002268D4E9021C176841EA0C01084307EA34
:10245000030140F400700843106020680768012001
:1024600004F04CFB206807602068466020684668DE
:10247000012004F043FB20684FF64172466020685B
:1024800085602068C56020688169114041F0800145
:10249000816120688669012004F030FB2068866134
:1024A0002068C5612068C569012004F027FB206809
:1024B000204AC561206800F580508169114041F0D3
:1024C000040141F008718161206800F58050856940
:1024D000012004F013FB2168174801F580518D613C
:1024E000216801F580510860206800F5805005687A
:1024F000012004F003FB206800F580500560A0690E
:10250000012808D1206800F58050C16941F04001E0
:1025100041F48031C1616069084A818811640178A1
:10252000D0F8010041EA00205064BDE8F0810000CD
:102530000F8120FF233FDEF88020C102008002408F
:102540004FF4006004F04EBF4FF4005004F04ABF57
:1025500010B52DF027FB074C2168884218BF10BD2D
:102560002DF03AFBA168401AE0602169084420611F
:1025700010BD000020010120134A4DF8044D92F8CF
:102580000EC00123BCF1020F19D2947B02F10C039F
:102590004FF0000C02F804C0947B02EB84046060EE
:1025A000907B00F803C0907B431C93733A246346EE
:1025B0002F22303008704C708A7081F803C01846A2
:1025C0005DF8044B70470000F41001200D490246ED
:1025D0008B7B0120002B08BF70471278303AD2B2B3
:1025E00001EB8203D3F804C0BCF1000F08BF7047B1
:1025F000002058600A441073887B421E8A730020B2
:1026000070470000F410012070B4D1E9006CD1E9EA
:102610000243D1E90425012E43EA02064CEA040CE8
:102620008C69D1E907324CEA0606D1F824C046EAA3
:10263000050141EA040109D00B4301681A4342EA4B
:102640000C026FF30E01114301600CE00568446851
:10265000134325F4F8424CEA02021A4302606FF376
:102660000E042143416070BC00207047426942EA79
:10267000410141610020704718B4D1E90023D1E93C
:1026800002C16FF01F041A4304EB4C1C4CEA4121B9
:10269000114300910161002018BC70472DE9F0033F
:1026A0006FF00F058B68D1E9006C2C01761E2704B2
:1026B0004FEA04294FEA043805EB0C15B1F810C0B5
:1026C00035430E7E04EB03248B8A2543C96809EB4E
:1026D0000C4408EB035C012A07EB06630ED082680A
:1026E0003E1306EB01310D4302F0704145EA04024E
:1026F00042EA0C021A431143816013E00E03816821
:10270000C2682543A6F5805421F470412B4321F47F
:10271000700144EA0C0C02F070421A434CEA0101C9
:102720008160C2600020BDE8F00370472DE9F047EA
:102730000446406800278EB0804600F0EDFF009010
:10274000B0F87CA0D0F86890D0F88060D0F88850BD
:10275000C16D01B10F68684601F034F805E06968A1
:1027600020468847002845D12D68002DF7D12068E4
:10277000172855D00CDC0F283FD004DC0B2879D06B
:102780000D2827D18DE0112810D0142822D13DE04A
:10279000262848D004DC1E2853D020281AD18CE0EB
:1027A0002A2818D0B0F5107F14D12AE0E5684046F9
:1027B00000F0B2FF0390697A41B9297A012905D165
:1027C000B0F87C1041F48071A0F87C100DF10C0081
:1027D00000F0F8FF75E0404600F09EFF0090E168D1
:1027E00011B1C0F8841002E0D0F88400E0606846BF
:1027F00000F0E8FF0EB0BDE8F087D7B34046B84719
:102800005FE02146404616F0EDFCF3E705A940469F
:1028100000F00BFBE0680699016007994160E9E769
:10282000C4F80C90E6E7E0680228E3D1CDF83080E8
:102830002720E1680D910AA90A90A06810F0DEFD3A
:10284000D8E7E068012804D00021404600F0BBFA38
:10285000D0E730460FF0EBFD68B130460FF0B0FF27
:1028600030460FF0A7FC98B1012130460EF0CAFDAA
:102870000EE026E02FE048460FF0F6FF0646404601
:1028800000F04AFF0090C0F88060684600F09AFFB0
:102890000121404600F097FA002EABD10020E06005
:1028A000A8E75FEA0A700CD4E068C06848B1007A13
:1028B00038B140460FF084FF03E02146404616F051
:1028C0006BFB214640460EF000FD002892D02046CA
:1028D0000EF0C0FF8EE7404600F01EFF0090703003
:1028E00000F076FE684673E7F0B587B0B0F90840AF
:1028F0000DF10C0E876945684FF0000C0C9E8EE8B8
:10290000F000448ACDE9001C0294B0F90C10B0F933
:102910000A60B0F910501944B0F90E40B0182B46B7
:10292000224600F003F807B0F0BD00002DE9F04F9B
:102930008BB01F4691468A468346DDF858801A9C24
:10294000DDE9146501F056FD6034324845F48055E8
:102950003B464A465146CDE90204CDE9006558465A
:102960000EF0BEFE04004FD000F0D6FE17993022C4
:1029700004900EF0DFFD0498282227493430FDF73B
:10298000E5FC049800261999234F4166083FA0F8FA
:102990007C80C0F88060C666C0F888607968C165D0
:1029A00004A800F00FFF05A9204600F03EFA1B48DE
:1029B00041F2827103960094CDE90110BDF91E30F9
:1029C000BDF91C20BDF91A10BDF918005B1A121AC6
:1029D000521C5B1C0EF084FE064678684168204657
:1029E0008847204600F098FE0490866604A800F010
:1029F000E9FE42F20400054202D120460EF0DAFF61
:102A00001899204600F0EEF902F074FD0BB0204654
:102A1000BDE8F08F2D2700085C040120E72F000897
:102A20002DE9F04194B00446006800F0B5F908B112
:102A3000D84D01E0D74D2C35606815281ED00CDC30
:102A40000B281FD004DC00287ED005287DD12BE187
:102A50000E287BD01228F9D13DE1162806D0172880
:102A600008D0182808D01C28F0D109E0E86914B073
:102A7000BDE8F081286AFAE7686AF8E7A86AF6E72D
:102A80006869F4E71C212068CDE90B01206800F09B
:102A900043FE0390016D0BA88847064603A800F08B
:102AA00091FE022E0FDB95E8070033468DE8070004
:102AB000A169D4E9040203F0EFF82169A0698F1934
:102AC000A0EB06082CE0286802F09DF9EA69D4E939
:102AD00004100A44521E01F0D7F9D4E90502E9694D
:102AE000511A491C01F0D0F9D4E904077F1C39467A
:102AF00001F0F6F9A069394601F0F2F9686802F0D0
:102B000082F920693946401C01F0EAF9A06939468A
:102B1000401E01F0E5F9A0692769A0F10208BF1C79
:102B2000286802F070F960694246394601F0ACF954
:102B3000686802F068F9606942463946401C01F055
:102B4000A3F9686A022802E011E1ACE0FCE00ADDCA
:102B5000A86802F058F9686A424661690B1838465D
:102B6000891C5B1E26E0296AB14225DD6769022EB9
:102B700007F1020801DB374401E007F10207206991
:102B800001DB304401E000F1020022693B460A44C7
:102B90004146A2F1010201F059FA022E02DBA069BE
:102BA000821B01E0A269921EA069E9693B46401AB6
:102BB0004146401C01F04AFA022E02DB60690644DD
:102BC00001E06669B61CE76928687F1E02F01BF900
:102BD00020693A46314601F0E9F9A0693A463146A2
:102BE00001F0E4F9E7696868BF1E02F00CF920699A
:102BF0003A463146401C01F0D9F9A0693A463146BF
:102C0000401E01F0D3F9E869022802DC286A022894
:102C100021DDA86A022802DDE1690F1A01E0E769F7
:102C2000BF1EA86802F0EFF8E969022907DD2069F4
:102C30003B4642183146801C521E01F007FA286AB2
:102C4000022808DDE8693B46A2693146101A401C9B
:102C5000921E01F0FBF9286802F0D5F82169D4E949
:102C6000062001F011F9686802F0CDF8D4E90620D9
:102C70002169521E401E491C01F006F9A86A02286B
:102C800011DD2169D4E9064601F10208A41E371AB4
:102C9000A868B61E7F1C02F0B6F8334622463946B5
:102CA000404601F0D3F972E0208A00B2ADF814007A
:102CB000A18A09B2ADF81610228B12B2ADF8182015
:102CC000A38B1BB2ADF81A30D5E90354CDE90054FB
:102CD00001F09EF85BE0208A298B0844ADF81400CF
:102CE000A08AADF81600288B218B081AADF81800C1
:102CF000A08BADF81A00206800F00EFD0390006F65
:102D0000F0B1022002F028F9039890F87C10C1F38A
:102D1000C00100EB8100006C02F075F80398406B75
:102D200002F088F80398006F00F0F6FC03990A900F
:102D3000B1F95A2005A900F073FF0AA800F042FD7E
:102D400003A800F03FFD22E0208AADF81400A08A1D
:102D5000ADF81600208BADF81800A08BADF81A0066
:102D6000A86802F050F805A801F09CF90FE020686F
:102D700000F0D2FC0390B0F85A1041F00C01A0F81A
:102D80005A1003A800F01EFD20680FF0C5FD0020BA
:102D90006DE600007006012038B505004FF0000414
:102DA0000FD001F027FB284600F0B6FC009090F809
:102DB0007C00000700D50124684600F003FD02F006
:102DC00099FB204638BD70B504000D4609D001F0CE
:102DD00011FB2946204616F0A3FEBDE8704002F024
:102DE00089BB70BD7CB504000D461DD001F002FB0F
:102DF000204600F091FC0090006F0190684600F0C2
:102E0000E1FC01A8294603F09DFA58B1204600F0E4
:102E100083FC019900900167684600F0D3FC2046CE
:102E20000FF09CFA02F066FB7CBD2DE9F34F85B0F4
:102E30000C460027B846059800F06EFC0090012172
:102E4000C06D856805982A6890472A6803218246E4
:102E500005989047049002212A68059890470390AE
:102E600000212A6805989047064600980FF048FF11
:102E7000834600980FF04BFF8146009890F832107F
:102E8000890601D5B0F9588000F036F8054600985B
:102E9000C06E10B10EF09AFF07460499039A06EB34
:102EA0000803ABEB01007119491E61822580591995
:102EB0006780401EA4F804A0CB192081A9EB020270
:102EC000E380521E6281A4F80CA020826846E6814D
:102ED00000F078FCB4F90C0002AA019001A9B4F941
:102EE00010000290059800F03BF80198A08102982C
:102EF000208207B0BDE8F08F10B5014690F832008F
:102F000082064FF0000007D5B1F95400002803D124
:102F1000486B01F0C4F9801C10BD70B58AB00C4636
:102F2000054600F0F9FB0990C06D866809A800F01D
:102F300049FC009534B1012C06D0022C0BD0032C97
:102F400004D10AE0182000E016200190716868465C
:102F500088470AB070BD1520F7E71720F5E7000095
:102F60002DE9FC4717468946044600F0D5FB009042
:102F7000C16D056868468E6800F024FC3268002147
:102F800020469047064620460EF0E8FD27E000BFA9
:102F900000F0C2FB01902AB2B0F90010B0F9043081
:102FA000B0F902C0891A9A1AACEB254CB44510D17D
:102FB00090F82800000605D53868884209DB491ECC
:102FC000396006E0D9F80000904202DC521CC9F8D2
:102FD000002001A800F0F6FB20460EF065FE04007C
:102FE000D6D1BDE8FC872DE9F0430446406889B09E
:102FF00005460EF066FE814600F08EFB0290D0F88A
:103000004880D0F88070466E02A800F0DBFB206894
:10301000172853D008DC0E283AD00F2811D01428D6
:103020004CD015283DD149E01E281ED01F282AD09B
:10303000222840D0312834D10020E06009B0BDE81A
:10304000F0836FF070414046884503D008F064FD7E
:1030500000F035FC002EF1D0D4E902122068CDE951
:10306000040504A8CDE906121FE0E0680028E5D0B9
:103070002FB1AF4203D038460FF0A2FBDEE728465F
:103080000FF0F2FBDAE7214648460EF01EF9D5E7CD
:10309000E0684168002904DD00680928EFD00A28AB
:1030A00005D05EB12046C4F80490B047C6E7284674
:1030B0000FF00EFCC2E7C4F80C80BFE720460EF00C
:1030C000C9FBBBE710B50A28044612D00D2C14D05A
:1030D00001F090F909480068C069016820468847F6
:1030E0000748016809B120468847BDE8104002F052
:1030F00001BABDE8104000F081BD10BD4C030120B5
:103100008C0301200E4810B5006801F071FE0D48D7
:10311000006801F078FE012001F000FF002001F0BE
:103120000BFF002001F018FF002001F077FE064899
:10313000006801F07FFEBDE81040002001F0C0BE35
:10314000480301204403012040030120014AC2E951
:1031500000017047F0020120014AC2E900017047F6
:10316000F8020120014AC2E900017047E40301208E
:10317000014AC2E90001704700030120014AC2E987
:1031800000017047EC0301202DE9F04FDFF830B16A
:1031900091B04FF0FF35DBF80030D3F81CC0B3F925
:1031A00022100691B3F92490DCF81C40A1898142D9
:1031B00006D8E289824203D3D4F80080471A12E08D
:1031C000D4E90181002971D00A8882426ED84D88E5
:1031D00085426BD3801A496880B201EB8000B0F958
:1031E0000070B0F90250781C60D0A17C9CF81800E7
:1031F000B3F92A60079010FB01FA207C0890304652
:1032000008F0F0FC0246DBF80000A17CD2B207FB1C
:103210000A830F920127826B02970592CDE903136F
:10322000C069089AC17E807ECDE90001DDE9060310
:10323000494607F0EFFF681C18D046F0020008F07E
:10324000D1FCDBF8000003AA05FB0A83A17C856B97
:10325000029782E82A00C069089AC17E807ECDE983
:103260000001DDE90603494607F0D4FFDBF8000062
:103270005D46C069417E007E814214D9022E12D083
:1032800086F0040008F0AEFC2868C069017EC27EAA
:10329000857E437E11FB0291089A4B44069812FBEF
:1032A000050208F047F90F9808F09CFCDBF80000D5
:1032B000617C428C1144418411B0BDE8F08F000064
:1032C0004C03012004480068C069C06909B1027C50
:1032D0000A60407C704700004C03012002200880F7
:1032E0007047C06982898A4202D8C2898A4210D254
:1032F000806880B102888A420DD843888B420AD305
:10330000406800EB8100A0EB8200B0F900000028CB
:1033100001DB012070470020704700002DE9F043D9
:103320002F4C034687B019462068B0F92A60C0695F
:10333000C06900F084F800284FD001884068591A0D
:1033400000EBC1053046AF7808F04CFC81462068A0
:1033500069680123826BCDE90237CDE90412C169A6
:10336000CB7E8A7ECDE900230B7EB0F924102A782B
:10337000B0F9220007F04EFF2068C069417E027E4E
:1033800091421ED9C07E022E11FB00F712FB00F6FF
:1033900017D000F022FF804600F0E8FE01F033FD78
:1033A00021682A78CB69B1F92200B1F92410DB7EBB
:1033B00012FB0302CB19314408F0BCF8404601F07F
:1033C00022FD484608F00EFC20686978C369B0F910
:1033D00022209B7E11FB0321418407B0BDE8F083CE
:1033E0004C03012030B50F4C05460B46294620689A
:1033F000C069C06900F023F8002812D02468028850
:1034000041680120AA1AE469002B00EBC200085CA5
:10341000A47E10FB04F004D011F8321011FB04F16B
:10342000196030BD4C03012001200880704700B5B1
:10343000C06900F004F8002800D0012000BD06E0BB
:1034400002888A4202D842888A4202D280680028D2
:10345000F6D170472DE9F041154F0025154C18E0C5
:103460002069C5EB05163968702200EBC600001D07
:10347000FCF76CFF2169002201EBC60041F8362001
:1034800000F10C028261131F011D6D1CC0E90F13B6
:103490004164A0688542E3DB14F02CFA2169C0EB9B
:1034A000001001EBC000001D3860BDE8F081000095
:1034B0004C03012088050120104970B50E480860B2
:1034C000084602F037FF0D4C143CA068C0EB00101A
:1034D000C500284600F098F8094B002120612A46D3
:1034E0001B6898474FF0FF30206002F031F8BDE8CC
:1034F000704014F0FFB90000599101089C050120AB
:1035000044050120044918B1044A0A60C8607047A4
:103510000348086070470000C0020120055F0108F1
:10352000995E010810B5040009D000F063FF204641
:1035300010F020FB044601F0DDFF204610BD002006
:1035400010BD000038B5054600F054FF2846FFF7CF
:10355000E9FF04000AD000F0DFF8064B00210090DC
:103560002A461B689847684600F02CF901F0C2FF14
:10357000204638BD4405012021F003020149C1E97C
:103580000002704728DC022010B5040011D000F0C2
:1035900031FF0849042000EBC400496B0958486812
:1035A00010F020F8204616F0A5F9BDE8104001F013
:1035B000A1BF10BD68DB0220002805D0034AD16BF3
:1035C000016001B14860D0637047000068DB0220F1
:1035D00010B5044600F00EFF2068FFF7D5FF00206D
:1035E0002060BDE8104001F085BF000070B50024E8
:1035F0000D46064605E000BF06EB8400FFF7E8FF36
:10360000641CAC42F8DB70BD2DE9F041044614F0B7
:10361000DBFC2849E41C24F003052D1D086CA8429E
:1036200000D90546CC6B13E054F8042CAA420ED105
:1036300084B1206808B162684260606808B122689D
:103640000260CA6BA24232D12068C8632FE02468AE
:10365000002CE9D18846896BD8F80C000F1857F870
:10366000040C3E1A306838B1002016F0C7F957F83C
:10367000040C3E1A3068D0B97068A84217DB304499
:10368000441B3046241D16F071F9D8F80C10491B64
:10369000C8F80C10D8F814102944C8F81410706831
:1036A000401B02D031460FF09DFF44F8045C2046D9
:1036B000BDE8F08168DB022010B5002414F084FC22
:1036C0000C490F2001EBC002526C1AB101EBC00093
:1036D000406C08E0401EF5D508E04168A14200D9E1
:1036E0000C46806810B180680028F6D1A4F10C0067
:1036F00010BD000068DB02204FF0000138B1054A20
:10370000042101EBC000526B105841680C39084687
:103710007047000068DB02200549CA69521CCA6173
:10372000496B01EBC0010A78521C0A7000F062B8C4
:1037300068DB02207CB506460C460846FFF7F2FE21
:10374000050021D006B33046FFF7D6FFA04200DACD
:10375000044600F04FFE2846FFF7DEFF009030469B
:10376000FFF7DAFF094B01460190224600981B68DB
:103770009847684600F026F801A800F023F8304684
:10378000FFF702FF01F0B6FE28467CBD4805012088
:1037900010B500F02FFEFFF78FFF094AB0F5800F3C
:1037A0004FF06401126A03D990FBF1F4544302E034
:1037B0004243B2FBF1F401F09DFE204610BD000033
:1037C00068DB022002680A4952F8082C4B6B03EBB5
:1037D000C2021378022B03D3CB690BB15B1ECB6102
:1037E00011780023491E11700360184670470000CD
:1037F00068DB02200349042202EBC000496B085831
:103800000830704768DB022070B514460D46064646
:1038100000F0F0FD204600F0EDFC0300174804EB3B
:10382000840109D050F82100D0E90110711A2A1A38
:10383000184601F035FB1CE000EB8104A268B2429F
:1038400001D0012200E00022E368AB4201D0012355
:1038500000E000231A430CD0236943B150F8210043
:10386000D0E901016A1A311A184601F07DFAC4E95B
:103870000265BDE8704001F03DBE0000B0DD0220F1
:1038800030B5C2B2CBB2D21A00D5524293B2C0F315
:10389000072403FB03F3C1F30725621B00D5524243
:1038A000000C92B2A0EB114002FB023100B20028E2
:1038B00001DA404200B280B200FB001030BD0021AE
:1038C000084610B500F000FD43F6FF725042134663
:1038D000BDE81040014600F001B800002DE9FC41B0
:1038E0001C4615460E46074600F084FD042008F0ED
:1038F00079F9804612484069D0E913100F44ADF8B9
:1039000000700D44ADF804500644ADF80260044464
:103910006846ADF806400FF001FA07E023462A4654
:103920003146384607F006FE0FF0ACF90028F5D115
:10393000404608F057F901F0DDFDBDE8FC810000CC
:10394000380301202DE9F8431C0016460F460546B2
:10395000DDE9089802D10EF0C1F8044600962E6801
:1039600043464A4621462846B047061E3AD00EF046
:10397000AAF8698A814630460DF044FD30460FF0C2
:103980004BF848460FF048F84FF000080CE000BF35
:10399000CDF80080002355F81CCF1A46494628462A
:1039A000E04708B30FF038F87F1E002FF0DC1D2130
:1039B00048460EF068FE601C13D000F01BFD0EF0B0
:1039C000EBF838B1FFF716FF8469B44202D0002C3F
:1039D0002046F7D1B44202D030460EF045FF01F048
:1039E00089FD3046BDE8F88330460DF06BFF0020BE
:1039F000F8E700002DE9F041022B1C4616460D4663
:103A0000074602DB0020BDE8F0811C20FFF7FCFD2B
:103A10000028F8D00DB105610AE0094A52F82410D7
:103A200009B905E011460A68002AFBD1096901615C
:103A300000218461868201604160C0E90217E2E7EB
:103A40007803012070B51D46FFF7D4FF040009D0AC
:103A500000F00EF8E068006820B90348006800EB49
:103A600085008465204670BD4C030120FFF7A4BD8E
:103A700070B5C0B38269022A36DA214B511C1C781A
:103A80008C4200DA19701F4C54F8221019B944F80E
:103A9000220032E019464B68002BFBD106E0CB68D0
:103AA000C5681B682D68AB4203DD09680029F6D1A3
:103AB0001AE0C1B1CB68C6681B683668B3420CD146
:103AC000838A012B05D008E01946DB681B68AB42EE
:103AD00003DB0B68002BF7D129B14B6833B11860B9
:103AE0004A68426004E0FFE7012070BD44F822000C
:103AF0008842486000D100210160002070BD0000B4
:103B00009E0301207803012010B503E00468FFF74D
:103B1000AFFF20460028F9D110BD000010B50C4BB6
:103B20000022816953F82140844205D1046843F89A
:103B30002140016801B14A60416809B103680B6026
:103B4000016809B143684B600260426010BD00002B
:103B50007803012000207047022801DB0020704715
:103B6000054951F8200004E0C16809680029F6D031
:103B700000680028F8D17047780301202DE9F84348
:103B800004001D46164688460CD0FFF7C5FD009080
:103B9000006807686846FFF715FE2B463246414627
:103BA0002046B847BDE8F88310B5044600F022FC73
:103BB0002046FEF7E9FABDE8104001F09BBC00008A
:103BC00070B514460D46064600F014FC0548016821
:103BD00030464D848C84FEF7D7FABDE8704001F082
:103BE00089BC00004C03012070B50C46054602E07C
:103BF0002846FFF7D9FF641EFAD570BD10B500F056
:103C0000F9FB00F00FFB054909688A8C1044888491
:103C1000088C4884BDE8104001F06CBC4C030120C6
:103C200047F6FF73AFF300802DE9FC4106001F4605
:103C300090460D464FF000041AD000F0DBFB65B152
:103C400028460EF0D9FE040007D0024629466846F1
:103C500002F03CFA68460EF0CFFE3B46424629464B
:103C6000304601F07BFE20460EF0C6FE01F042FC1D
:103C7000BDE8FC812DE9FF4F070090468DB08946D5
:103C80007ED000F0B7FBD9F80040D9F8045021B23B
:103C900028B2401A401C019000F0C4FA18F00C0F32
:103CA00006461ED0109A3846019901F02DFC08F006
:103CB0000C01042904D0082902D00C2911D104E0F8
:103CC000291400FB1610401C09E02114C1EB254209
:103CD00000FB1620401C00EBD07001EB600060F38D
:103CE0001F4448460EF088FE5FEA000B09D0CDE97C
:103CF00003450246494603A802F0E8F903A80EF07E
:103D00007BFEA6F1010A109A0199384602F05EFB8B
:103D100009900AEB2440099960F31F453846CDE924
:103D2000064502F035F918F003010FD001292DD016
:103D300002290FD1B9F90420B9F90010521A101A4A
:103D4000401C00EBD07001EB600001E0B9F800000E
:103D5000ADF8180006AA0999384601F0A7FD109A97
:103D60003846019902F028FB074406EB244060F333
:103D70001F4438780028C6D158460EF03DFE00E0BA
:103D800001E001F0B7FB11B0BDE8F08FB9F8041005
:103D9000081A401CDCE700002DE9F04F87B09B4675
:103DA00092460C460546DDE9109800F023FB1648C4
:103DB0000168D1E913014719ADF810700E19ADF87B
:103DC000126000EB0A05ADF8145001EB0B04ADF8DE
:103DD000164004A80EF0A2FF88B1DFF830B04FF013
:103DE000000ACDE900982B462246CDE902BA3946B1
:103DF000304612F055F90EF045FF0028F1D101F0E0
:103E000079FB07B0BDE8F08F4C030120E1B4000856
:103E10002DE9F04F87B09B4692460C460546DDE9FA
:103E2000109800F0E7FA16480168D1E91301471924
:103E3000ADF810700E19ADF8126000EB0A05ADF880
:103E4000145001EB0B04ADF8164004A80EF066FF09
:103E500088B1DFF830B04FF0010ACDE90098234671
:103E60002A46CDE902BA3146384612F019F90EF069
:103E700009FF0028F1D101F03DFB07B0BDE8F08F4C
:103E80004C03012021B400082DE9FC4114460D46E5
:103E9000064600F0AFFA114F3868D0E91301054427
:103EA000ADF800500E44ADF802600444ADF8044093
:103EB0006846ADF806600EF031FF08E0386822462B
:103EC0003146406E0368284698470EF0DBFE002816
:103ED000F4D101F00FFBBDE8FC8100004C03012090
:103EE0007CB50C46064600F085FA0F4D2868D0E9EF
:103EF00013100E44ADF804600444ADF80060684649
:103F0000ADF80640ADF802400EF008FF07E0286863
:103F10002146406E4268304690470EF0B3FE0028BE
:103F2000F5D101F0E7FA7CBD4C0301202DE9FC41FD
:103F30001C4616460D46074600F05CFA1A48016812
:103F4000087ED1E91321401E17440D4416440C4449
:103F5000391AADF800103218ADF804202B1AADF85C
:103F600002302044ADF8060068460EF0D7FE15E09A
:103F700032462946384607F053FA3246214638463B
:103F800007F04EFA621E3846691C07F0A9FA621E55
:103F90003046691C07F0A4FA0EF074FE0028E7D141
:103FA00001F0A8FABDE8FC814C0301207CB5144661
:103FB0000D46064600F01EFA0F480068D0E91310BF
:103FC0000E44ADF800600544ADF804600444684652
:103FD000ADF80250ADF806400EF0A0FE06E0224615
:103FE0002946304607F07CFA0EF04CFE0028F6D148
:103FF00001F080FA7CBD00004C03012010B50024C4
:1040000000E0012400F004F80028FAD1204610BD99
:104010000B4810B50024006810B1804700B101249E
:104020000DF0DAFC00B101240648006810B18047A9
:1040300000B101240448006800B18047204610BD4B
:104040005803012084030120800301202DE9FC4155
:104050001C4615460E46074600F0CCF9104800688D
:10406000D0E913100F44ADF800700644ADF80260BB
:104070000D44ADF8045004446846ADF806400EF017
:104080004DFE07E023462A463146384607F052FAED
:104090000EF0F8FD0028F5D101F02CFABDE8FC8106
:1040A0004C030120B0F90630B0F90420B0F9021039
:1040B000B0F90000FFF7CABF08B500280B4605D0CD
:1040C000009281888268C08800F001F808BD10B5B0
:1040D0000828029C30D008DC04FB01F401280AD037
:1040E000022813D0042804D11CE0102828D020284E
:1040F0002CD0002010BD04EBD30003F00701C1F168
:104100000701105CC84000F0010010BD04EB9300F3
:10411000062101EA4301105CC1F10601C84000F02C
:10412000030010BD04EB5300D907105C02D000F06F
:104130000F0010BD000910BD04FB0130105C10BD64
:10414000481004FB003032F8100010BD881004FB4A
:10415000003052F8200010BD034951F82000C1681A
:104160008A6A0821104700007803012010B500F08A
:1041700041F907F00FFA07F00DFB044601F0BAF918
:10418000204610BD10B5044600F034F90548002162
:104190000068C069426820469047044601F0AAF9C9
:1041A000204610BD4C03012070B50C46054600F0BA
:1041B00021F9064821460068C069426828469047B0
:1041C000044601F097F9204670BD00004C03012021
:1041D000002801D00DF054BC704710B500F00AF96A
:1041E00007F0E0F907F0D6FA044601F083F920461B
:1041F00010BD000002284FF0000102D2024951F820
:104200002010084670470000D803012010B500F0C8
:10421000F1F803480068047C01F06CF9204610BDF9
:104220004C03012010B500F0E5F804480068C069AF
:10423000447E01F05FF9204610BD00004C030120D0
:1042400010B500F0D7F801F099FE044601F052F9DC
:10425000204610BD70B515460E46044600F0CAF85B
:104260002A463146204607F019FA040002D0002001
:104270003060286001F03EF9204670BD70B50C46F4
:10428000054600F0B7F82146284601F0D5FEBDE806
:10429000704001F02FB901F058B9407E7047017E9F
:1042A000C07E11FB00F07047024951F82000006900
:1042B0000068704778030120024951F82000006926
:1042C000406870477803012070B50C46054600F041
:1042D00091F8044800684584848401F00BF90020BB
:1042E00070BD00004C03012039492DE9F0413948E7
:1042F0000B6823F001030B600168C1F30A01A1F50B
:104300008062493A21D000220368C3F30A03A3F56F
:10431000806151391BD0002100680A43C0F30A00B4
:10432000A0F58063523B14D000202B4902432B4A56
:104330004FF001050FD02A4885608368002BFCD11F
:1043400001600068904219D0FEE70122DCE70121FC
:10435000E2E70120E9E7234B4FF00A401B68B0EB8E
:10436000435F0BD1204805600368002BFCD11E4839
:10437000083801600068904200D0FEE701F0C6F9FD
:104380001A4C2E20207001F0E2F8194813F0E4FDD9
:104390001AF016F8074607F0ABF910B107F0BCF9B0
:1043A00038B907F0C2F9064607F0ABF9314607F015
:1043B00013FC0021084600F091FD0DF025FFFFF7EA
:1043C00049F8A06900B180473846A570BDE8F08182
:1043D000002000E0002004E0C2A507F4CDB5E8B558
:1043E000003002400010005C084C025838030120E5
:1043F00034DC022070B5184CE06820B101F0A3F85D
:104400006168884204D001F0B7F801F09CF8606060
:10441000E068401CE06001281CD113F06BFA2168B1
:104420000546884216D0002913DBFFF793FB23686B
:1044300002462169C5EB0510C3EB031301EBC00075
:1044400001EBC303011D5A67044A1160406FFFF777
:104450005BFB256070BD0000880501204C03012036
:104460001CB5040004D10E480068046E002C16D060
:10447000FFF7C0FF2046FFF74FF9009044696846F8
:10448000FFF7A0F94CB12046FFF746F9019081688B
:104490008968884701A8FFF795F901F02BF81CBD42
:1044A0004C03012001490A4600F002B801F0FFFF69
:1044B0002DE9FE435FEA000815460C4646D0FFF79B
:1044C00099FF002000F0AAFC814621480068066E92
:1044D0004046FFF721F902900068806900F06CFC0B
:1044E000074640F6FF70C44204D10298B0F9044078
:1044F000B0F906500298621E6B1E0189ADF80040AB
:104500001144ADF804104089ADF802501844ADF8DC
:1045100006000DF039F802A8FFF754F968460EF0CE
:10452000FDFB06E02A462146404600F0D7FA0EF091
:10453000A9FB0028F6D1384600F03EFC304600F0DA
:104540008FF9484600F06AFC00F0D4FFBDE8FE8316
:104550004C0301202DE9FE4F0027984691468A46DC
:104560000C9E8346FFF746FF184819490068407CB7
:1045700051F82040E1680968042903D02468002C20
:10458000F8D100E01CB9FFF7E7FA041E1BD0E06881
:104590000121C26A20469047050011D02469A06815
:1045A0008047401C02D10B4C46F001060096434662
:1045B0004A4651465846CDE9015400F0EDF9074608
:1045C00000F098FF3846BDE8FE8F00004C03012044
:1045D00078030120E4CC030838B504001CD0FFF7B1
:1045E00009FF0E480068006EA04201D100F0D6FB22
:1045F0002046FFF791F80090406908B100F063FF92
:1046000000980068FFF732FA6846FFF7DBF82046AB
:10461000FEF7BAFF00F06EFF38BD00004C0301202A
:104620002DE9FF4F83B09A468B460746FFF7E2FE1F
:10463000DFF83891D9F80000447C4D480057012834
:10464000204606DD07F05AF80546204607F06AF8CE
:1046500005E007F03CF80546204607F03EF8044622
:104660001FB302A901A8FFF709FEB7F9000000284F
:1046700000DA0020B7F902608046002E00DA00263A
:1046800001984119B7F90400491E14F0F1FB0546E1
:1046900002980119B7F90600491E14F0E9FBA5EBD1
:1046A0000802841B521C641C03E04FF000082A46D9
:1046B0004646BAF1000F01D1C4F1000A002A51DDCB
:1046C000002C4FDD10985346314600904046FFF7CE
:1046D00041FF5FEA000A10D000F07CF8A0420746D4
:1046E00006D0D9F80000806C10B132210EF0B2FE75
:1046F000504600F0B5F8002523E059460598884754
:1047000000F0F8FE012007B0BDE8F08F611BB94250
:1047100002DA504600F088F83DB172194146504621
:1047200000F0CCF85046FFF79BFE594605988847A5
:104730001048016809B1002088475046FFF7B2FED3
:104740003D44A542E2DB5046FFF746FF002000F063
:1047500087F8A74206D0D9F80000806C10B1332149
:104760000EF078FE00F0C6FE0020CCE74C030120DE
:104770009C030120C805012038B505004FF0000456
:1047800011D0FFF737FE2846FEF7C6FF00900068FD
:1047900000698068804707F071FE04466846FFF7AD
:1047A00011F800F0A7FE204638BD38B504000ED041
:1047B000FFF720FE2046FEF7AFFF00F1180400903F
:1047C0006846FEF7FFFF00F095FE204638BD00204A
:1047D00038BD000038B500250446FFF70BFE1CB9B4
:1047E00008480068046E44B12046FEF795FF00902B
:1047F000B0F90A506846FEF7E5FF00F07BFE284658
:1048000038BD00004C03012070B500240546284641
:104810000FF0DEFE641C18B1BDE8704000F082B8F5
:10482000052CF4DB70BD000038B505000C4604D142
:104830000A480068056E002D0FD0FFF7DBFD284603
:10484000FEF76AFF0090B0F90A10A14200DD448132
:104850006846FEF7B7FF00F04DFE38BD4C0301205F
:10486000F8B50546FFF7C6FD104E3068046ECDB1B1
:104870000CB100F093FA0CF0DDFF2846FEF74CFF78
:10488000009031680D660068FFF7F2F86846FEF7A1
:1048900099FF07F085FA07F069F900BF00F02AFEDA
:1048A0002046F8BD00F07AFAF8E700004C0301203A
:1048B0000149086070470000140401207CB5040021
:1048C00015460E4604D116480068046E002C25D00B
:1048D000FFF790FD2046FEF71FFF00902DB2C58028
:1048E00034B2848007F042F90098406988B1FEF73D
:1048F00013FF009A0190B2F9081081800029B2F9E3
:104900000A10C18002D009B10480458001A8FEF7D9
:1049100059FF6846FEF756FF00F0ECFD7CBD000035
:104920004C03012001490A4600F002B801F0FFFFE4
:10493000FEB5060015460C462DD0FFF75BFD304650
:10494000FEF7EAFE40F6FF710290CC4203D1B0F9C7
:104950000440B0F906500189621EADF800401144D0
:10496000ADF8041040896A1EADF802501044ADF84D
:10497000060002A8FEF726FF68460EF0CFF906E013
:104980002A462146304600F091F80EF07BF90028C7
:10499000F6D100F0AFFDFEBD2DE9FF4FDFF8E8B026
:1049A00083B01C464FF0000892464246DDE9106095
:1049B000DBF800104B7C1299FFF71CF8050061D062
:1049C00028698068804707F059FD81460AFB09F194
:1049D000C91DCF08FEF7DCFEF10705D1C11700EBBA
:1049E0009170801000EB4000002C09DC1FB11838DA
:1049F000B0FBF7F000E000206442A04200DC044677
:104A0000F00707D100902346DDE90301524600F08C
:104A1000DFFC8046002C03DC2846FFF727F831E056
:104A200004FB07F0F10700F1180002D0FEF77AFD51
:104A300001E0FEF787FD06001CD0FEF76DFE019039
:104A40000560DDE903138180C380A0F808A04481DC
:104A5000C0F81480C0E9037901A8FEF7B3FE1298EC
:104A6000AE602861DBF80000407CA861304607B0EA
:104A7000BDE8F08F2846FEF7F9FFB8F1000001D03D
:104A8000FEF782FD0020F2E74C030120054B30B415
:104A9000054C1B685B7C54F823301B6930BC15F057
:104AA00065BF00004C03012078030120F8B51546CE
:104AB0000E460746FEF730FE009016210068C068DB
:104AC000426A0020904704466846FEF77BFE002CB1
:104AD00003D02A4631463846A047F8BDF8B5050050
:104AE00016460F4612D0FEF717FE0090446968463E
:104AF000FEF768FE2846FFF73FFE0828034600DD64
:104B00002CB132463946284615F0F2FFF8BD324640
:104B10003946284616F090F9F8BD000070B50446F5
:104B200009480D46016819B90849016001F002FC05
:104B30000548001F006800B10024002D00DC01259D
:104B40000348055570BD0000B003012059900108CD
:104B50009C030120094A10B5126802B10020074ADF
:104B6000243252F82030002B07DBA2F118044FF05A
:104B7000FF3344F8201042F8203010BDAC03012070
:104B8000002810B521D009B30AB3B1F90040B2F939
:104B900000309C4200DA23460380B1F90240B2F9AA
:104BA00002309C4200DA23464380B1F90440B2F956
:104BB00004309C4200DD23468380B1F90610B2F92F
:104BC0000620914200DC1146C18010BD11460A68E2
:104BD00002604968416010BD70B500280BD00388A1
:104BE000848846880B44C5880C440380B1188480AF
:104BF0002A444180C28070BD70B50E4D0446D5E98F
:104C00000001884209D10C49884201D13C3000E0C2
:104C10000C3807C884E8070006E090E80E0084E836
:104C20000E0012F091FF2860207A002800D00120A9
:104C300070BD00007005012020DD02200448D0E98D
:104C40000010814201D10120704700207047000010
:104C500070050120094910B50446086820B90848C4
:104C60000860084601F066FB0749064808602046D0
:104C700015F084FDBDE8104000F07EB980050120EC
:104C800041910108FD1D01088803012070B5002530
:104C9000FFF7B0FB094CD4E9002082420AD0D2E9E8
:104CA0000056104612F05AFF3146206028460DF09B
:104CB000E1FB012500F01EFC284670BD60050120C7
:104CC0002DE9FC41154DDDE908742D68B5F9086042
:104CD000864200DD3046B5F90C60964200DA324675
:104CE000824219DBB5F90A608E4200DD3146B5F922
:104CF0000E509D4200DA2B468B420DDB00E02C4625
:104D0000E5682D6825B1042D02D02568002DF6D167
:104D1000CDE9007406F008FEBDE8FC814C030120DB
:104D2000B0F90220B1F906309A4213DCB1F9022041
:104D3000B0F906309A420DDCB0F90020B1F9043028
:104D40009A4207DCB1F90010B0F90400814201DC9D
:104D50000120704700207047014602487022006819
:104D6000FBF7F4BA4C03012070B5040015460E465B
:104D70000AD0FFF73FFB2A463146204615F0ACF932
:104D8000BDE8704000F0B6BB70BD00000249702263
:104D90000968FBF7DBBA00004C03012010B5FFF7F0
:104DA00029FB06F099FE06F0FBFF0CF0EDFBBDE8D9
:104DB000104000F09FBB000070B50B4D0446286802
:104DC000467CFFF717FB022C09D22046FEF7C4FEF3
:104DD00028B128684474FFF7E1FF0448046000F03C
:104DE00089FB304670BD00004C030120B80401204F
:104DF00010B50446FFF7FEFA204606F08DFEBDE82A
:104E0000104000F077BB10B50446FFF7F3FA2046D8
:104E100006F0BAFEBDE8104000F06CBB10B50446C9
:104E2000FFF7E8FA204606F0DDFE044600F062FBDC
:104E3000204610BD70B50446FFF7DCFA0448006850
:104E4000C56904B1C46100F055FB284670BD00007F
:104E50004C0301200249CA69C8611046704700002E
:104E600008030120064A030004D019B10020C2E95A
:104E70000831704700211162012051627047000023
:104E800008030120014948607047000038030120F1
:104E900002494A6848601046704700000803012034
:104EA00070B514460D460646FFF7A4FA2246294679
:104EB000304606F01FFF044600F01CFB204670BD84
:104EC00070B50546FFF796FA03480068847E85763C
:104ED00000F010FB204670BD4C03012070B50C465D
:104EE0000546FFF787FA094822460A49058008481F
:104EF000048009680848497C50F82100C1680B6AA1
:104F000029469847BDE8704000F0F4BAA803012094
:104F1000AA0301204C0301207803012070B5054647
:104F2000FFF768FA03480068047E057600F0E2FAAD
:104F3000204670BD4C03012070B50446FFF75AFAB5
:104F400004480068B0F92C50848500F0D3FA284654
:104F500070BD00004C03012070B50446FFF74AFA0B
:104F600004480068B0F92A50448500F0C3FA284686
:104F700070BD00004C03012002480068002800D0EA
:104F800000477047A405012002498A6802B9886079
:104F9000FFF7F2BF600501202DE9FC419846164657
:104FA0000D460746FFF726FA1C20FEF7CBFA040051
:104FB0002DD01C491A4808602046FEF7ADFB009032
:104FC00015B9FFF768F9054600980760C0E9046560
:104FD000A0F80C806846FEF7F5FB204613F0E2FDD2
:104FE000114DA86840B905F10C010120A8600F48D7
:104FF0000860084601F09EF92046FEF78DFB0190FF
:10500000296849B181602C6001A8FEF7DBFB00F044
:1050100071FA2046BDE8FC812C6000228260F3E733
:105020005950000858030120040701206D91010820
:1050300010B504000ED0FFF7DDF9204614F0B0FCE7
:10504000204615F0D5FB2046FEF79EFABDE810403D
:1050500000F050BA10BD00002DE9F041002588B0E5
:10506000FFF7C8F9184C676825E000BFFFF713F990
:1050700006466068FEF750FB00904169891B0029D5
:1050800015DC6168029604910169039146686660C7
:10509000D0F800806846FEF795FB02A84146884795
:1050A00066B160680125B84205D1002506E0684672
:1050B000FEF788FB02E060680028D7D100F01AFAFA
:1050C00008B02846BDE8F0810407012038B5050086
:1050D0000C4611D0FFF78EF92846FEF71DFB009015
:1050E0008089204201D0012400E000246846FEF7B8
:1050F00069FB00F0FFF900E00124204638BD38B517
:10510000040017D0FFF776F92046FEF705FB009064
:10511000FFF7C1F801460098826911444161684671
:10512000FEF750FB204615F063FB204613F03AFDD6
:1051300000F0E0F938BD38B505000C460BD0FFF79C
:1051400059F92846FEF7E8FA009084616846FEF7B0
:1051500039FB00F0CFF938BD38B50546002028608E
:105160000648046844B12046FEF7D6FA009000696C
:1051700028606846FEF726FB204638BD040701205C
:1051800038B504000D464FF00000086011D02046ED
:10519000FEF7C2FA0090846844B16846FEF712FB3D
:1051A0002046FEF7B9FA0090006928606846FEF7CD
:1051B00009FB204638BD00003EB512490C220446CA
:1051C000FBF718F9002813D00F480E4D026882B182
:1051D00094E80B008DE80B0001A9684690479DE814
:1051E0000E00002885E80E0002D16846FFF732FD68
:1051F0003EBD2046FFF72EFD94E8070085E8070036
:105200003EBD0000A4DC0220E003012070B50C4686
:105210000546FFF7EFF8054821460068C2682846B2
:105220009047044600F066F9204670BD5403012003
:1052300010B50446FFF7DEF8044800680168204610
:105240008847044600F056F9204610BD540301205B
:1052500010B50446FFF7CEF80448006841682046C0
:105260008847044600F046F9204610BD540301204B
:105270000149096889680847540301202DE9F04174
:10528000084E044605683068016828468847074686
:105290003068416828468847284420603846BDE881
:1052A000F0810000540301202DE9F0410025084F52
:1052B0000E4680462C4606E0396808EB0400496833
:1052C00088476D1C0444A642F6DC2846BDE8F08100
:1052D000540301202DE9F041074F00250C460646F6
:1052E00005E0386841683046884706440544641E36
:1052F000F7D22846BDE8F081540301202DE9F041A2
:105300001F46144688460646069D2246641C3B46B8
:10531000B0684146D0F804C03046E0476D1EF4D175
:10532000BDE8F0812DE9F041B0F90050B0F904403A
:10533000491B8C422ADDB0F902500B440469143039
:10534000551B5B1E05FB0400DC1003F00705FF2264
:10535000C5F10703B4EBE10500EBE10402FA03F346
:1053600001F007072078DEB222FA07F210D01043CE
:105370006D1E002D04F8010B05DDFF222946204695
:10538000FBF705F82C44207830432070BDE8F0810D
:1053900032401043F9E770B5B0F9025000F1140340
:1053A00006698024521BB0F9000002FB0632081A7D
:1053B00002EBE00100F007020878D44020430870B7
:1053C00070BDB0F90610026951431430FAF7E6BF18
:1053D0002DE9F84380461C4602F10F001546894628
:1053E0000011470003FB07F01430FEF7ABF806008E
:1053F00018D0FEF7FFFF3046FEF78EF9009001232C
:10540000A0F80080A0F802908580C48083810649BE
:10541000076181606846FEF7D5F900F06BF8304609
:10542000BDE8F8830020FBE770D5030870B5B0F93C
:10543000063000F11405B0F9044093420B681BDDFF
:105440000069A34202FB005000EBE30214DA12F8F9
:10545000010B641E03F00705E410A840A4EBE3056C
:10546000C4B206E045B1083312F8014B6D1E23F0BB
:105470000703002CF6D004E0002070BD6006040E87
:105480005B1C2006FAD5FF2C07D0184602E0640604
:10549000240E401C6606FAD400E0D81DC4436407FD
:1054A00005D006E012F8014BFF2C09D108306D1E23
:1054B000F8D5C01A0B60401C70BD6206140E401C6B
:1054C0002206FAD4F5E738B50546FEF793FF2846DD
:1054D000FEF722F900908189491E0CB2848168464A
:1054E000FEF770F914B92846FEF74EF800F002F8FE
:1054F00038BD00000348C168491EC16001D100F0F9
:1055000043B87047880501202DE9F0410024164674
:105510000F460546FEF76EFF32463946284600F034
:105520004BFF054408B1641CF6E7FFF7E3FF204694
:10553000BDE8F08102484FF40041FEF71DB80000BD
:10554000E0CE0120704720F067BC20F0D5BA70474C
:1055500030B583B000246846009420F066FB054D0A
:105560000121286001A8019420F0BEFB686003B00F
:1055700030BD00001801012002484FF0FF310068E3
:1055800020F080BB180101200148006820F050BBCA
:10559000180101200EB508B102AA00E000226846F9
:1055A000002301A900F08CFC0EBD0000074910B5D6
:1055B0000C7818B101200870801E03E000200870EC
:1055C0006FF07F4005F0E4FD204610BD3903012057
:1055D000082A10B50EDC012A034618D0022A58D03A
:1055E000042A7AD010F8042B491E03F8012BF9D1B4
:1055F000012010BD102A08DC4FEA000230F8043BFD
:10560000491E22F8023BF9D1F2E7002010BD10F844
:10561000042B491E4FEAC2724FEA126234D010F8CE
:10562000044B491E04F0010442EA84122CD010F805
:10563000044B491E04F0010442EA441224D010F83D
:10564000044B491E04F0010442EA04121CD010F875
:10565000044B491E04F0010442EAC40214D010F8BD
:10566000044B491E04F0010442EA84020CD010F8F5
:10567000044B491E04F0010442EA440204D010F82D
:10568000044B04F001042243002903F8012BBED18E
:10569000AEE710F8042B491E4FEA82724FEA1262FD
:1056A00015D010F8044B491E04F0030442EA04121A
:1056B0000DD010F8044B491E04F0030442EA8402A2
:1056C00005D010F8044B04F003042243491E0029BE
:1056D00003F8012BDDD18BE7FFE710F8042B491EFF
:1056E0004FEA02724FEA126205D010F8044B04F040
:1056F0000F042243491E002903F8012BEDD177E75F
:1057000038B50024009400F01DF838BD0B4810B5E2
:10571000416B002910D101214163FFF70BFFFDF719
:10572000CBFE06F04FFB05490548383108600846B6
:10573000BDE8104000F0FEBD10BD000038030120A0
:10574000219001082DE9F0410D460446069901B962
:1057500001461F68082A09DC012A0E461AD0022ACF
:105760005BD0042A7DD0082A13D18DE0102A07DCF3
:10577000D3F810C00E46BCF1000F04D0022389E01C
:105780000020BDE8F08101CCB8476D1E26F8020B61
:10579000F9D189E001CCB847C0076D1E4FEA106807
:1057A00036D001CCB84748EA80106D1E00F0FF08E3
:1057B0002ED001CCB84748EA40106D1E00F0FF081B
:1057C00026D001CCB84748EA00106D1E00F0FF0853
:1057D0001ED001CCB84748EAC0006D1E00F0FF089B
:1057E00016D001CCB84748EA80006D1E00F0FF08D3
:1057F0000ED001CCB84748EA40006D1E00F0FF080B
:1058000006D001CCB84740EA08006D1E00F0FF0842
:10581000002D06F8018BBDD146E001CCB8478007CA
:105820006D1E4FEA106816D001CCB84748EA001048
:105830006D1E00F0FF080ED001CCB84748EA80008A
:105840006D1E00F0FF0806D001CCB84740EA080002
:105850006D1E00F0FF08002D06F8018BDDD123E05E
:10586000FFE701CCB84700076D1E4FEA106806D06D
:1058700001CCB84740EA08006D1E00F0FF08002D7B
:1058800006F8018BEDD10FE0D3F810C0BCF1000F8A
:1058900004D001232A462046E04705E001CCB84762
:1058A0006D1E06F8010BF9D101206AE77CB50646AA
:1058B00028480D46006868B100200DF02FFA06E078
:1058C0006A46294630460FF0ADF80DF0DBF90028A6
:1058D000F6D17CBD1068204C009050680190226881
:1058E000BDF8000032F84C1F0844ADF80000BDF8C8
:1058F000020091880844ADF80200BDF80400118848
:105900000844ADF804009188BDF806000844ADF8DD
:10591000060068460DF002FA0EE000BF20686A46F5
:10592000BDF800104184BDF802108184294630463C
:105930000FF078F80DF0A6F90028EFD12068418C1F
:10594000B0F84C20891A4184818CB0F85020891A13
:1059500081847CBDA40301204C0301202DE9FF4F6D
:1059600085B09A4690460D46FEF75CFCDDF814B013
:105970004FF0000906464C4625B12868009068683B
:10598000019002E06846FEF723FC18F00C0F02D0ED
:105990000027554613E0BDF902402DE005987F1C15
:1059A000294600F01FFB014605986D1AFFF792FC8F
:1059B00005990844059005A800F058FB08B9002D8A
:1059C000ECD108F00C00042804D0082802D00C28E0
:1059D00012D105E0BDF9060007FB1604641C0BE0BC
:1059E000BDF90600BDF90210401A07FB1600401C65
:1059F00000EBD07001EB60045546CDF814B043E0E5
:105A00000598294600F0EEFA074601460598ED1B79
:105A100000F0BEFA18F003010ED0012939D0022996
:105A20000DD1BDF90410BDF90020891A091A01EB46
:105A3000D17102EB610101E0BDF9001089461749FF
:105A4000401E4844A3190A685B1E3946A2F82290FA
:105A5000948402AAADF80C00ADF808900598ADF852
:105A60000A40ADF80E30FFF721FF05983946FFF7E1
:105A700031FC059908440590FEF7D4FB044405A8C1
:105A800000F0F4FA002801D1002DB9D109B0BDE829
:105A9000F08FBDF90410091A491CCFE74C0301200F
:105AA00049B1002802DAA0EB610001E000EB6100DF
:105AB00090FBF1F070470020704700002DE9FF4F88
:105AC00093B0164600211D460DAB0C46DDF884A0B0
:105AD00004A80A46CAF80010119102A900F0F0F9D2
